{
  "address": "0xCf7Ed3AccA5a467e9e704C703E8D87F634fB0Fc9",
  "abi": [
    {
      "inputs": [],
      "stateMutability": "nonpayable",
      "type": "constructor"
    },
    {
      "anonymous": false,
      "inputs": [
        {
          "indexed": true,
          "internalType": "address",
          "name": "_from",
          "type": "address"
        }
      ],
      "name": "ToggleOff",
      "type": "event"
    },
    {
      "anonymous": false,
      "inputs": [
        {
          "indexed": true,
          "internalType": "address",
          "name": "_from",
          "type": "address"
        }
      ],
      "name": "ToggleOn",
      "type": "event"
    },
    {
      "inputs": [],
      "name": "getLightState",
      "outputs": [
        {
          "internalType": "bool",
          "name": "",
          "type": "bool"
        }
      ],
      "stateMutability": "view",
      "type": "function"
    },
    {
      "inputs": [
        {
          "internalType": "address",
          "name": "",
          "type": "address"
        }
      ],
      "name": "lightEmUp",
      "outputs": [
        {
          "internalType": "bool",
          "name": "",
          "type": "bool"
        }
      ],
      "stateMutability": "view",
      "type": "function"
    },
    {
      "inputs": [],
      "name": "owner",
      "outputs": [
        {
          "internalType": "address",
          "name": "",
          "type": "address"
        }
      ],
      "stateMutability": "view",
      "type": "function"
    },
    {
      "inputs": [],
      "name": "toggleOff",
      "outputs": [],
      "stateMutability": "nonpayable",
      "type": "function"
    },
    {
      "inputs": [],
      "name": "toggleOn",
      "outputs": [],
      "stateMutability": "nonpayable",
      "type": "function"
    }
  ],
  "transactionHash": "0x92e20d0336945969e9cbd0eb4ab9371928ce013f4234608d0839724092dffc43",
  "args": [],
  "numDeployments": 1,
  "solcInputHash": "2c04424015add841d06e4749430189ac",
  "bytecode": "0x608060405234801561001057600080fd5b50336000806101000a81548173ffffffffffffffffffffffffffffffffffffffff021916908373ffffffffffffffffffffffffffffffffffffffff1602179055506103ca806100606000396000f3fe608060405234801561001057600080fd5b50600436106100575760003560e01c8063267bcabd1461005c5780637fca8769146100665780638da5cb5b14610096578063ce04b554146100b4578063f4c23667146100d2575b600080fd5b6100646100dc565b005b610080600480360381019061007b91906102c2565b610178565b60405161008d9190610324565b60405180910390f35b61009e610198565b6040516100ab9190610309565b60405180910390f35b6100bc6101bc565b6040516100c99190610324565b60405180910390f35b6100da610210565b005b60018060003373ffffffffffffffffffffffffffffffffffffffff1673ffffffffffffffffffffffffffffffffffffffff16815260200190815260200160002060006101000a81548160ff0219169083151502179055503373ffffffffffffffffffffffffffffffffffffffff167f3215c368f0020a0eb43de91af60d3b832a0290e7cca1bd901960502c42bead0960405160405180910390a2565b60016020528060005260406000206000915054906101000a900460ff1681565b60008054906101000a900473ffffffffffffffffffffffffffffffffffffffff1681565b6000600160003373ffffffffffffffffffffffffffffffffffffffff1673ffffffffffffffffffffffffffffffffffffffff16815260200190815260200160002060009054906101000a900460ff16905090565b6000600160003373ffffffffffffffffffffffffffffffffffffffff1673ffffffffffffffffffffffffffffffffffffffff16815260200190815260200160002060006101000a81548160ff0219169083151502179055503373ffffffffffffffffffffffffffffffffffffffff167f56afd74ef3c77cc8eb530ae8df781a3c846206c85e2171de1ac3637981bbce2a60405160405180910390a2565b6000813590506102bc8161037d565b92915050565b6000602082840312156102d457600080fd5b60006102e2848285016102ad565b91505092915050565b6102f48161033f565b82525050565b61030381610351565b82525050565b600060208201905061031e60008301846102eb565b92915050565b600060208201905061033960008301846102fa565b92915050565b600061034a8261035d565b9050919050565b60008115159050919050565b600073ffffffffffffffffffffffffffffffffffffffff82169050919050565b6103868161033f565b811461039157600080fd5b5056fea2646970667358221220327522dd2ff406563b3c800d51ee6bef264c0b3366d07598d048b58c3e9043ea64736f6c63430008040033",
  "devdoc": {
    "kind": "dev",
    "methods": {},
    "version": 1
  },
  "userdoc": {
    "kind": "user",
    "methods": {},
    "version": 1
  },
  "storageLayout": {
    "storage": [
      {
        "astId": 4,
        "contract": "contracts/EthTrustDenverDemo.sol:EthTrustDenverDemo",
        "label": "owner",
        "offset": 0,
        "slot": "0",
        "type": "t_address"
      },
      {
        "astId": 8,
        "contract": "contracts/EthTrustDenverDemo.sol:EthTrustDenverDemo",
        "label": "lightEmUp",
        "offset": 0,
        "slot": "1",
        "type": "t_mapping(t_address,t_bool)"
      }
    ],
    "types": {
      "t_address": {
        "encoding": "inplace",
        "label": "address",
        "numberOfBytes": "20"
      },
      "t_bool": {
        "encoding": "inplace",
        "label": "bool",
        "numberOfBytes": "1"
      },
      "t_mapping(t_address,t_bool)": {
        "encoding": "mapping",
        "key": "t_address",
        "label": "mapping(address => bool)",
        "numberOfBytes": "32",
        "value": "t_bool"
      }
    }
  }
}